:100000000C9434000C9474000C947F000C945100F8
:100010000C9451000C9451000C9451000C9451001C
:100020000C9451000C9451000C9451000C9451000C
:100030000C9451000C9451000C9492000C945100BB
:100040000C9451000C9451000C94DB000C94510062
:100050000C9451000C9451000C9451000C945100DC
:100060000C9451000C94510011241FBECFEFD8E026
:10007000DEBFCDBF11E0A0E0B1E0EAE3F7E002C0EF
:1000800005900D92A432B107D9F723E0A4E2B1E0C4
:1000900001C01D92AD32B207E1F70E948E000C94B0
:1000A0009B030C940000449840E050E0682F70E0FF
:1000B0004598439898B19B01042E02C03595279529
:1000C0000A94E2F721703327220F331F220F331FC8
:1000D000220F331F292B28B9459A4F5F5F4F4830B5
:1000E000510531F7449A08951F920F920FB60F925F
:1000F000112416BC0F900FBE0F901F9018951F92E1
:100100000F920FB60F9211248F9386B580932B0117
:100110008F910F900FBE0F901F90189578940E94AA
:100120008601FFCF1F920F920FB60F9211242F93CB
:100130003F934F935F936F937F938F939F93AF936F
:10014000BF93EF93FF93809124018F5F80932401ED
:1001500080912401843010F0109224018BB18F70B3
:100160008BB9E0912401F0E0E95DFE4F80810E94AF
:100170005300E09124019BB1F0E0EA5FFE4F8081E3
:10018000892B8BB9FF91EF91BF91AF919F918F9187
:100190007F916F915F914F913F912F910F900FBE83
:1001A0000F901F901895E0ECF0E0908195FFFDCF47
:1001B0008093C60008951F920F920FB60F921124DC
:1001C0002F933F934F935F936F937F938F939F935F
:1001D000AF93BF93EF93FF938091C60080932C0160
:1001E00080912601823308F040C0909121039B301A
:1001F000E0F590912C019D3021F090912C019A30E6
:1002000019F59091250122E3929FF0011124E35DFD
:10021000FE4FE80FF11D10821092260180912103FC
:100220008F5F809321039F5F8DEC989F812D112418
:10023000869586958695880F282F220F220F820F8C
:10024000981B9093250111C0E091250191E0980F32
:100250009093260190912C0122E3E29FF00111245A
:10026000E35DFE4FE80FF11D908380912C010E9409
:10027000D30081E080932203FF91EF91BF91AF9172
:100280009F918F917F916F915F914F913F912F91AE
:100290000F900FBE0F901F901895CF92DF92EF92A4
:1002A000FF926B017C0160E070E083ED90E00E94C2
:1002B0000C02E1ECF0E0808188698083E2ECF0E000
:1002C00080818660808360E472E48FE090E0A70123
:1002D00096010E94E101DA01C9010197A109B10962
:1002E000892F9A2FAB2FBB278093C50021502093D5
:1002F000C4008091C6008FE99FE00197F1F700C02C
:100300000000FF90EF90DF90CF90089560E875E2D5
:1003100080E090E00E944D018FE99FE00197F1F7A6
:1003200000C00000259A2D987894C0E00F2EF2E3CB
:10033000FF2EF02D6894EE24E5F8DDEC809121038A
:100340008823E1F380912103815080932103FC9E57
:1003500080011124035D1E4F6AE071E0C8010E9414
:100360000302892B11F42D9A13C061E171E0C801D9
:100370000E940302892B11F42D980AC069E171E0F3
:10038000C8010E940302892B19F485B18E2585B915
:100390009FEF23ED80E3915020408040E1F700C0C3
:1003A000000091E09C0F9D9FC12D1124C695C6951C
:1003B000C695CC0F8C2F880F880FC80F9C1BC92F98
:1003C000BDCFA1E21A2EAA1BBB1BFD010DC0AA1FA7
:1003D000BB1FEE1FFF1FA217B307E407F50720F0AE
:1003E000A21BB30BE40BF50B661F771F881F991F29
:1003F0001A9469F760957095809590959B01AC0172
:10040000BD01CF010895FB01DC018D9101908019A0
:100410000110D9F3990B08950F931F93CF93DF9396
:10042000009731F46115710519F480E090E03AC04D
:100430008B01EC016EE070E081E090E00E945702D9
:10044000FC01892B91F380E883830115110571F07C
:100450001387028781E8838380912303909124038B
:10046000892B21F4F0932403E09323032097C9F010
:10047000D187C08783818260838380912503909197
:100480002603892B71F4F0932603E09325038091D2
:10049000270390912803892B21F4F0932803E093FC
:1004A0002703CF01DF91CF911F910F9108950F93F3
:1004B0001F93CF93DF93869F8001879F100D969F98
:1004C000100D1124C8010E947302EC01009729F05D
:1004D000A80160E070E00E949403CE01DF91CF910B
:1004E0001F910F9108950F931F93CF93DF93823045
:1004F000910510F482E090E0E0912B03F0912C0341
:1005000020E030E0A0E0B0E0309719F14081518167
:100510000281138148175907C8F08417950769F4B9
:10052000109731F012960C93129713961C9327C0D4
:1005300000932B0310932C0322C02115310519F0D1
:100540004217530718F49A01BD01EF01DF01F801CA
:10055000DBCF21153105F9F0281B390B243031058B
:1005600080F48A819B816115710521F0FB019383E1
:10057000828304C090932C0380932B03FE01329658
:1005800044C0FE01E20FF31F819391932250310981
:10059000398328833AC02091290330912A03232BE1
:1005A00041F4209102013091030130932A032093FA
:1005B000290320910001309101012115310541F4F9
:1005C0002DB73EB74091040150910501241B350B16
:1005D000E0912903F0912A03E217F307A0F42E1B00
:1005E0003F0B2817390778F0AC014E5F5F4F241797
:1005F000350748F04E0F5F1F50932A03409329039D
:100600008193919302C0E0E0F0E0CF01DF91CF91C0
:100610001F910F910895CF93DF93009709F481C044
:10062000FC01329713821282A0912B03B0912C030C
:10063000109781F420813181820F931F209129032B
:1006400030912A032817390751F5F0932A03E093D4
:10065000290367C0ED0120E030E0CE17DF0740F44A
:100660004A815B819E0141155105F1F0EA01F5CF08
:10067000D383C28340815181840F951FC817D90746
:1006800059F488819981840F951F02969183808304
:100690008A819B81938382832115310529F4F0930C
:1006A0002C03E0932B033DC0E901FB83EA834991CE
:1006B0005991C40FD51FEC17FD0761F4808191811A
:1006C000840F951F0296E901998388838281938123
:1006D0009B838A83E0E0F0E012968D919C911397C2
:1006E000009719F0FD01DC01F7CF8D919C911197D6
:1006F0009D012E5F3F4F820F931F20912903309160
:100700002A032817390769F4309729F410922C032B
:1007100010922B0302C013821282B0932A03A0937B
:100720002903DF91CF910895DC0101C06D93415001
:0A0730005040E0F70895F894FFCF61
:10073A0000002D032000102040806C6564206F6E3D
:10074A00006C6564206F6666006C656420746F6770
:04075A00676C650063
:00000001FF
