S019000053746F72616765436F6E74726F6C6C65722E7372656312
S11300000C9434000C9451000C9451000C94510045
S11300100C9451000C9451000C9451000C94510018
S11300200C9451000C9451000C9451000C94510008
S11300300C9451000C9451000C9421040C94510024
S11300400C9451000C9451000C94A9040C9451008C
S11300500C9451000C9451000C9451000C945100D8
S11300600C9451000C94510011241FBECFEFD8E022
S1130070DEBFCDBF12E0A0E0B1E0E0EAF8E102C0EB
S113008005900D92A031B107D9F724E0A0E1B2E0C8
S113009001C01D92AC32B207E1F70E94A9030C948F
S11300A04E0C0C940000ECE7F0E0808180648083C7
S11300B0EAE7F0E08081876880832FEF83EC99E0A2
S11300C0215080409040E1F700C000000895ECE723
S11300D0F0E09081907F90839081892B80838FE1E1
S11300E093E00197F1F700C00000EAE7F0E08081B7
S11300F080648083808184FFFDCF8091780060914B
S1130100790070E0762F6627680F711D6F5F7F4F4F
S1130110072E000C880B990B0E94030620E030E0A8
S11301204AEF53E40E948F0620E030E040E85AE3AF
S11301300E948F0620E030E040E450E40E945F0516
S11301400E94CB05CB0108952BE0AC01249FC00194
S1130150259F900D112462E370E00E94FC06CB0100
S11301604E970895449840E050E0682F70E0459819
S1130170439898B19B01042E02C0359527950A94A3
S1130180E2F721703327220F331F220F331F220F70
S1130190331F292B28B9459A4F5F5F4F48305105CB
S11301A031F7449A0895CF93DF93EC01EAE1F2E04A
S11301B02AE030E0B9010E94FC06DC01A65FBE4FD4
S11301C08C918083CB01B9010E94FC06DC01A65FFF
S11301D0BE4F8C918183CE0164E670E00E94FC06E0
S11301E0CB01B9010E94FC06DC01A65FBE4F8C91D5
S11301F08283CE0168EE73E00E94FC06CB01B90154
S11302000E94FC06DC01A65FBE4F8C918383DF91C4
S1130210CF9108958AB1806F8AB98BB18F708BB9F1
S113022087B1886387B9449A80E090E00E94D30044
S1130230089584B1807F84B985B18F6085B90895AC
S1130240189B08C0199B08C01A9B08C01B9B08C0B8
S113025080E0089581E0089582E0089583E00895A0
S113026084E008950E9493040E940A010E941901E7
S11302700E94530060E875E280E090E00E94160559
S11302808AB18C608AB98BB1837F8BB984B1806366
S113029084B985B18F7C85B978940895811104C09F
S11302A05B9A2C982D980895813021F45B982C98B2
S11302B02D9A0895823019F45B982C9A2D980895FC
S11302C0CF93DF93C82F80E290E00E94FB07D0E039
S11302D0CC0FDD1FFE01E45DFE4F81818F93808191
S11302E08F930E94E50780E290E00E94FB07FE01E5
S11302F0EA5DFE4F81818F9380818F930E94E50791
S113030080E290E00E94FB07C05EDE4F89818F93FC
S113031088818F930E94E5078AE090E00E94FB07A2
S11303200F900F900F900F900F900F90DF91CF913F
S11303300895DF92EF92FF920F931F93CF93DF9371
S1130340E0913201F0E0EE0FFF1FE05EFE4F80818E
S113035091810E944607EC0111E0D12CE12C0F2E73
S1130360FFE0FF2EF02D07E280911F02882309F49D
S113037048C00E942001882309F449C082E48A9578
S1130380F1F700C00E942001882309F440C00E94B4
S11303902001813069F42196C03197E2D90714F025
S11303A0CF2DD02FCE010E94D30010921F022FC058
S11303B00E942001823051F4219712F4CD2DDE2DBC
S11303C0CE010E94D30010921F0221C00E9420017E
S11303D08430E9F4E0913201F0E0EE0FFF1FE05EBB
S11303E0FE4F608171814AE0CE010E946D07109238
S11303F01F0285E080933301809132010E946001E5
S11304000DC00E942001811102C010931F0283ECD1
S113041099E00197F1F700C00000A6CFDF91CF91DA
S11304201F910F91FF90EF90DF90089584E391E086
S11304300E944F05E0913201F0E0EE0FFF1FE65EEF
S1130440FE4F808191810E944F0587E491E00E94D4
S11304504F05E0913201F0E0EE0FFF1FEC5EFE4F1E
S1130460808191810E944F058AE591E00E944F05A9
S11304700895992334F00E94D3008FEF80931C02D7
S113048008959195819591090E94D3008DEF8093F1
S11304901C020895CF93DF9380912004882309F4EC
S11304A0CAC080912004815080932004C091270207
S11304B082E3C89FE0011124C45DDD4F6CE571E067
S11304C0CE010E946407892B41F480EA9FE00E94D8
S11304D0D30085E0809333018CC062E671E0CE01E5
S11304E00E946407892B81F488EE93E00E94D30074
S11304F081E791E09F938F930E94E50781E08093C9
S113050033010F900F9075C065E871E0CE010E9431
S11305106407892B61F480ED97E00E94D3008091F9
S113052032010E94600182E08093330162C063E97A
S113053071E0CE010E946407892B49F588EB9BE0AA
S11305400E94D300E0913201F0E0EE0FFF1FE65E5F
S1130550FE4FC081D18180E00E9467000E94A40008
S11305604AE0BE010E946D07E0913201F0E0EE0F17
S1130570FF1FE65EFE4F808191810E9446070E9424
S1130580390283E0809333010E94160232C062EA8A
S113059071E0CE010E946407892B59F480913301E4
S11305A0813009F040C01092320180E00E944E0177
S11305B020C06BEA71E0CE010E946407892B49F4E4
S11305C0809133018130A9F4809332010E944E015D
S11305D010C064EB71E0CE010E946407892B49F4DA
S11305E080913301813029F482E0809332010E94AA
S11305F04E0181E080932802809128028111FCCF72
S1130600909127029F5F8DEC989F812D11248695F0
S113061086958695880F282F220F220F820F981B0C
S11306209093270208C06BEA71E0CE010E94640730
S1130630892BF9F2CECFDF91CF910895DF92EF921B
S1130640FF920F931F93CF93DF93E0913201F0E079
S1130650EE0FFF1FEC5EFE4F808191810E944607E2
S1130660EC0111E00F2EF7EEDF2EF02DEE24EA94CC
S11306700F2EFEE1FF2EF02D00E080911F02882353
S113068009F452C00E942001882309F453C082E473
S11306908A95F1F700C00E942001882309F44AC01A
S11306A00E942001813061F42196CF31D10514F0EC
S11306B0CF2DD02FCE010E94390210921F023AC0D2
S11306C00E942001823069F42197C73E9FEFD90729
S11306D014F4CD2DDE2DCE010E94390210921F029A
S11306E029C00E942001843029F58091320190E0D4
S11306F0FC01E05FFD4F21E0208310921F02880F70
S1130700991FFC01EC5EFE4F608171814AE0CE01CD
S11307100E946D078FEC91E00E94020885E08093AF
S113072033010E9416020DC00E942001811102C0F3
S113073010931F0283EC99E00197F1F700C00000C9
S11307409CCFDF91CF911F910F91FF90EF90DF909D
S113075008950E943201CDEBD1E00F2EF4E1FF2E7B
S1130760F02D809121048823E1F080912B028133C4
S1130770B1F480911E028F5F843118F480931E02BD
S113078002C0F0921E0280911E021F928F93DF938B
S1130790CF930E94E5070F900F900F900F90109247
S11307A0210480912A028823C9F1E0913201E530C5
S11307B0A9F110922A02F0E0EE0FFF1FE65EFE4F51
S11307C00081118180E00E9467000E94A4004AE039
S11307D0B8010E946D078091320190E0FC01E05F56
S11307E0FD4F20812130C9F48C01000F111FF80145
S11307F0E65EFE4F808191810E9446076C01F801FC
S1130800EC5EFE4F808191810E9446078C159D0508
S113081014F45A9A03C05A9801C05A98809133012B
S1130820813019F40E944A0209C0823019F40E94EE
S1130830990104C0833011F40E941E030E944A02ED
S113084090CF1F920F920FB60F9211242F933F93C4
S11308504F935F936F937F938F939F93AF93BF93C4
S1130860EF93FF9380911602909117020196909353
S113087017028093160280912802882349F0809100
S1130880140290911502019690931502809314021C
S11308908091160290911702883E93403CF010928A
S11308A017021092160281E080932A0280911402AA
S11308B090911502843F914034F0109215021092E9
S11308C0140210922802809113028F5F8093130206
S11308D080911302843010F0109213028BB18F7048
S11308E08BB9E0911302F0E0E65EFD4F80810E9437
S11308F0B200E09113029BB1F0E0EA5FFE4F808109
S1130900892B8BB9FF91EF91BF91AF919F918F91FB
S11309107F916F915F914F913F912F910F900FBEF7
S11309200F901F90189584B5826084BD85B583604F
S113093085BD89EF87BDEEE6F0E08081826080832B
S11309400895E0ECF0E0908195FFFDCF8093C60020
S113095008951F920F920FB60F9211242F933F9375
S11309604F935F936F937F938F939F93AF93BF93B3
S1130970EF93FF938091C60080932B02809119021C
S11309808233E0F5909120049B30C0F590912B02C6
S11309909A3019F59091180222E3929FF0011124E4
S11309A0E45DFD4FE80FF11D108210921902809151
S11309B020048F5F809320049F5F8DEC989F812D8E
S11309C01124869586958695880F282F220F220F4D
S11309D0820F981B9093180211C0E091180291E0C5
S11309E0980F9093190290912B0222E3E29FF00159
S11309F01124E45DFD4FE80FF11D908380912B02DB
S1130A000E94A10481E080932104FF91EF91BF91A2
S1130A10AF919F918F917F916F915F914F913F9192
S1130A202F910F900FBE0F901F901895CF92DF92C9
S1130A30EF92FF926B017C0160E070E081EA94E048
S1130A400E949A07E1ECF0E0808188698083E2ECFF
S1130A50F0E080818660808360E472E48FE090E05F
S1130A60A70196010E941007DA01C9010197A109A3
S1130A70B109892F9A2FAB2FBB278093C500215032
S1130A802093C4008091C6008FE99FE00197F1F79D
S1130A9000C00000FF90EF90DF90CF900895CF93B7
S1130AA0DF93EC018881882331F021960E94A10410
S1130AB089918111FBCFDF91CF9108955058BB27C5
S1130AC0AA270E9476050C9455060E94470638F022
S1130AD00E944E0620F039F49F3F19F426F40C943A
S1130AE044060EF4E095E7FB0C943E06E92F0E94C1
S1130AF0660658F3BA17620773078407950720F050
S1130B0079F4A6F50C9488060EF4E0950B2EBA2F12
S1130B10A02D0B01B90190010C01CA01A0011124FF
S1130B20FF27591B99F0593F50F4503E68F11A16AB
S1130B30F040A22F232F342F4427585FF3CF46953C
S1130B4037952795A795F0405395C9F77EF41F165E
S1130B50BA0B620B730B840BBAF09150A1F0FF0F28
S1130B60BB1F661F771F881FC2F70EC0BA0F621F14
S1130B70731F841F48F4879577956795B795F79504
S1130B809E3F08F0B0CF9395880F08F09927EE0F99
S1130B909795879508950E94D2056894B1110C9495
S1130BA0890608950E946E0688F09F5798F0B92F21
S1130BB09927B751B0F0E1F0660F771F881F991F8E
S1130BC01AF0BA95C9F714C0B13091F00E948806A2
S1130BD0B1E008950C948806672F782F8827B85FB2
S1130BE039F0B93FCCF3869577956795B395D9F7E6
S1130BF03EF490958095709561957F4F8F4F9F4FF0
S1130C000895E89409C097FB3EF4909580957095FB
S1130C1061957F4F8F4F9F4F9923A9F0F92F96E944
S1130C20BB279395F695879577956795B795F111B9
S1130C30F8CFFAF4BB0F11F460FF1BC06F5F7F4F56
S1130C408F4F9F4F16C0882311F096E911C0772368
S1130C5021F09EE8872F762F05C0662371F096E871
S1130C60862F70E060E02AF09A95660F771F881F40
S1130C70DAF7880F9695879597F9089597F99F67FE
S1130C8080E870E060E008959FEF80EC0895002410
S1130C900A941616170618060906089500240A94DD
S1130CA012161306140605060895092E0394000C63
S1130CB011F4882352F0BB0F40F4BF2B11F460FFF2
S1130CC004C06F5F7F4F8F4F9F4F089557FD90581B
S1130CD0440F551F59F05F3F71F04795880F97FBFC
S1130CE0991F61F09F3F79F08795089512161306B6
S1130CF01406551FF2CF4695F1DF08C016161706E5
S1130D001806991FF1CF8695710561050894089519
S1130D10E894BB2766277727CB0197F908950E94AB
S1130D20A2060C9455060E94470638F00E944E060F
S1130D3020F0952311F00C943E060C9444061124E3
S1130D400C9489060E94660670F3959FC1F3950F73
S1130D5050E0551F629FF001729FBB27F00DB11D3B
S1130D60639FAA27F00DB11DAA1F649F6627B00DCB
S1130D70A11D661F829F2227B00DA11D621F739FB4
S1130D80B00DA11D621F839FA00D611D221F749FC2
S1130D903327A00D611D231F849F600D211D822F09
S1130DA0762F6A2F11249F5750409AF0F1F0882330
S1130DB04AF0EE0FFF1FBB1F661F771F881F91505D
S1130DC05040A9F79E3F510580F00C943E060C94C8
S1130DD089065F3FE4F3983ED4F38695779567954B
S1130DE0B795F795E7959F5FC1F7FE2B880F911D87
S1130DF09695879597F9089597FB072E16F4009416
S1130E0007D077FD09D00E94320707FC05D03EF4D5
S1130E10909581959F4F0895709561957F4F0895A2
S1130E20A1E21A2EAA1BBB1BFD010DC0AA1FBB1FEA
S1130E30EE1FFF1FA217B307E407F50720F0A21B5C
S1130E40B30BE40BF50B661F771F881F991F1A94C9
S1130E5069F760957095809590959B01AC01BD01F3
S1130E60CF010895AA1BBB1B51E107C0AA1FBB1FDA
S1130E70A617B70710F0A61BB70B881F991F5A9522
S1130E80A9F780959095BC01CD010895FC018827B0
S1130E909927E89421912032E9F3293010F02E307B
S1130EA0C8F32B3241F02D3239F4689404C00E9407
S1130EB07807820F911D219120532A30C0F31EF42C
S1130EC0909581959F4F0895FB01DC018D910190D0
S1130ED080190110D9F3990B0895BB274A3031F4D6
S1130EE0992322F4BDE2909581959F4F0C9481073C
S1130EF07AE0979F902D879F802D910D112408955E
S1130F00BB27FB015527AA27880F991FAA1FA417DF
S1130F1010F0A41B83955051B9F7A05DAA3308F0D3
S1130F20A95DA193009779F7B111B1931192CB0107
S1130F300C946D0B0F931F93CF93DF93009731F4B1
S1130F406115710519F480E090E03AC08B01EC0161
S1130F506EE070E081E090E00E94130AFC01892BAE
S1130F6091F380E883830115110571F013870287DB
S1130F7081E883838091220490912304892B21F4B6
S1130F80F0932304E09322042097C9F0D187C0870B
S1130F908381826083838091240490912504892B2A
S1130FA071F4F0932504E093240480912604909135
S1130FB02704892B21F4F0932704E0932604CF011E
S1130FC0DF91CF911F910F910895A0E0B0E0EBEE77
S1130FD0F7E00C94270CAE014B5F5F4FFA0161916F
S1130FE07191AF0180912404909125040E943208EC
S1130FF0E2E00C94430C60912404709125040E9457
S11310007D0B08950F931F93CF93DF93E0912404F6
S1131010F0912504238121FF1BC08C01D0E0C0E0A6
S1131020F80181918F016091240470912504DB0102
S11310301896ED91FC911997882331F00995892B25
S113104079F3DFEFCFEFECCF8AE00995892B19F024
S11310508FEF9FEF02C08D2F9C2FDF91CF911F91B7
S11310600F910895ABE0B0E0E8E3F8E00C94170CBE
S11310706C017B018A01FC0117821682838181FF46
S1131080CCC1CE0101963C01F6019381F70193FD99
S1131090859193FF81917F01882309F4BAC1853238
S11310A039F493FD859193FF81917F01853229F471
S11310B0B60190E00E947D0BE7CF912C212C312CBE
S11310C0FFE1F315D8F08B3279F038F4803279F0FF
S11310D08332A1F4232D20611DC08D3261F0803351
S11310E069F4232D216016C0832D8260382EE32DF0
S11310F0E4603E2E2AC0F32DF8601DC037FC2DC0DD
S113110020ED280F2A3040F08E32B9F436FC81C12C
S1131110232D2064322E19C036FE06C08AE0989E24
S1131120200D1124922E11C0EAE02E9E200D1124D0
S1131130222EF32DF0623F2E08C08C3621F4832D2D
S11311408068382E02C0883641F4F70193FD8591FA
S113115093FF81917F018111B3CF982F9F7D955487
S1131160933028F40C5F1F4F9FE399830DC083369F
S113117031F0833771F0833509F059C021C0F8018B
S1131180808189830E5F1F4F88248394912C53019F
S113119013C02801F2E04F0E511CF801A080B18069
S11311A036FE03C0692D70E002C06FEF7FEFC5010A
S11311B00E94620B4C018201F32DFF773F2E16C073
S11311C0280122E0420E511CF801A080B18036FEB5
S11311D003C0692D70E002C06FEF7FEFC5010E946C
S11311E0500B4C01F32DF0683F2E820133FC1BC0E1
S11311F0822D90E088169906B0F4B60180E290E062
S11312000E947D0B2A94F4CFF50137FC859137FEBB
S113121081915F01B60190E00E947D0B21102A9418
S113122021E0821A91088114910471F7E8C0843690
S113123011F0893641F5F80137FE07C060817181EC
S1131240828193810C5F1F4F08C060817181072EDA
S1131250000C880B990B0E5F1F4FF32DFF763F2E6A
S113126097FF09C090958095709561957F4F8F4F3A
S11312709F4FF0683F2E2AE030E0A3010E94B90B93
S1131280882E861845C0853731F4232D2F7EB22E43
S11312902AE030E025C0932D997FB92E8F36C1F016
S11312A018F4883579F0B5C0803719F0883721F003
S11312B0B0C0E92FE061BE2EB4FE0DC0FB2DF4607A
S11312C0BF2E09C034FE0AC0292F2660B22E06C0E4
S11312D028E030E005C020E130E002C020E132E047
S11312E0F801B7FE07C060817181828193810C5F30
S11312F01F4F06C06081718180E090E00E5F1F4F38
S1131300A3010E94B90B882E8618FB2DFF773F2E70
S113131036FE0DC0232D2E7FA22E891458F434FEE0
S11313200BC032FC09C0832D8E7EA82E05C0B82CBC
S1131330A32C03C0B82C01C0B92CA4FE0FC0FE011D
S1131340E80DF11D8081803321F49A2D997EA92E18
S113135009C0A2FE06C0B394B39404C08A2D867853
S113136009F0B394A3FC11C0A0FE06C0B21488F423
S1131370280C922C9B180EC0B21460F4B60180E2C3
S113138090E00E947D0BB394F7CFB21418F42B189D
S113139002C0982C212CA4FE10C0B60180E390E07A
S11313A00E947D0BA2FE17C0A1FC03C088E790E059
S11313B002C088E590E0B6010CC08A2D867859F009
S11313C0A1FE02C08BE201C080E2A7FC8DE2B6015F
S11313D090E00E947D0B891438F4B60180E390E01C
S11313E00E947D0B9A94F7CF8A94F301E80DF11DC6
S11313F08081B60190E00E947D0B8110F5CF222000
S113140009F442CEB60180E290E00E947D0B2A945A
S1131410F6CFF6018681978102C08FEF9FEF2B965E
S1131420E2E10C94330C0F931F93CF93DF93869FC9
S11314308001879F100D969F100D1124C8010E94F2
S11314402F0AEC01009729F0A80160E070E00E94E7
S11314505B0BCE01DF91CF911F910F9108950F93F4
S11314601F93CF93DF938230910510F482E090E0D4
S1131470E0912A04F0912B0420E030E0A0E0B0E0F9
S1131480309719F14081518102811381481759071E
S1131490C8F08417950769F4109731F012960C93ED
S11314A0129713961C9327C000932A0410932B04BD
S11314B022C02115310519F04217530718F49A0177
S11314C0BD01EF01DF01F801DBCF21153105F9F092
S11314D0281B390B2430310580F48A819B816115E6
S11314E0710521F0FB019383828304C090932B0444
S11314F080932A04FE01329644C0FE01E20FF31FDA
S11315008193919322503109398328833AC02091E1
S1131510280430912904232B41F4209102013091B5
S11315200301309329042093280420910001309171
S113153001012115310541F42DB73EB74091040155
S113154050910501241B350BE0912804F0912904E6
S1131550E217F307A0F42E1B3F0B2817390778F086
S1131560AC014E5F5F4F2417350748F04E0F5F1FE5
S113157050932904409328048193919302C0E0E09E
S1131580F0E0CF01DF91CF911F910F910895CF9398
S1131590DF93009709F481C0FC0132971382128211
S11315A0A0912A04B0912B04109781F420813181F9
S11315B0820F931F2091280430912904281739079A
S11315C051F5F0932904E093280467C0ED0120E06D
S11315D030E0CE17DF0740F44A815B819E0141155C
S11315E05105F1F0EA01F5CFD383C28340815181E3
S11315F0840F951FC817D90759F488819981840FDE
S1131600951F0296918380838A819B819383828331
S11316102115310529F4F0932B04E0932A043DC0ED
S1131620E901FB83EA8349915991C40FD51FEC1753
S1131630FD0761F480819181840F951F0296E90171
S113164099838883828193819B838A83E0E0F0E09D
S113165012968D919C911397009719F0FD01DC016E
S1131660F7CF8D919C9111979D012E5F3F4F820F73
S1131670931F20912804309129042817390769F40D
S1131680309729F410922B0410922A0402C013827A
S11316901282B0932904A0932804DF91CF91089576
S11316A0FC010590615070400110D8F78095909529
S11316B08E0F9F1F0895DC0101C06D93415050406F
S11316C0E0F70895FC016150704001900110D8F7D3
S11316D0809590958E0F9F1F0895DC01FC01672F64
S11316E071917723E1F7329704C07C916D937083F5
S11316F06291AE17BF07C8F308950F931F93CF935A
S1131700DF93FB01238121FD03C08FEF9FEF2CC0EA
S113171022FF16C046815781248135814217530721
S113172044F4A081B1819D012F5F3F4F3183208319
S11317308C93268137812F5F3F4F3783268314C0D4
S11317408B01EC01FB010084F185E02D0995892BC7
S1131750E1F6D80116968D919C91179701961796EC
S11317609C938E931697CE01DF91CF911F910F9189
S11317700895FA01AA27283051F1203181F1E89423
S11317806F936E7F6E5F7F4F8F4F9F4FAF4FB1E070
S11317903ED0B4E03CD0670F781F891F9A1FA11D6B
S11317A0680F791F8A1F911DA11D6A0F711D811D6C
S11317B0911DA11D20D009F468943F912AE0269F31
S11317C011243019305D3193DEF6CF010895462F90
S11317D04770405D4193B3E00FD0C9F7F6CF462F71
S11317E04F70405D4A3318F0495D31FD40524193DA
S11317F002D0A9F7EACFB4E0A69597958795779597
S11318006795BA95C9F700976105710508959B011D
S1131810AC010A2E06945795479537952795BA95A6
S1131820C9F7620F731F841F951FA01D08952F927F
S11318303F924F925F926F927F928F929F92AF925C
S1131840BF92CF92DF92EF92FF920F931F93CF93A9
S1131850DF93CDB7DEB7CA1BDB0B0FB6F894DEBF40
S11318600FBECDBF09942A88398848885F846E8466
S11318707D848C849B84AA84B984C884DF80EE80B0
S1131880FD800C811B81AA81B981CE0FD11D0FB6B9
S1131890F894DEBF0FBECDBFED010895F894FFCFDD
S11318A000002C04200080402010039F250D99493E
S11318B0411F0109D101D501D4015B015B015B0129
S11318C0D801DC01E001E401ED01F601FF010502AC
S11318D00A0205052063757272656E742074656D65
S11318E0706572203A20002C20646573697265204B
S11318F074656D706572203A20000A007265616437
S1131900790073656C6563742073746F72616765C5
S11319100073656C6563742073746F72616765200E
S11319206D6F64650073746F636B206D616E6167C6
S113193065720074656D706572206D616E616765B6
S1131940720073746F72616765310073746F7261D2
S11319506765320073746F726167653300726F6F0D
S11319606D315F646573697265203A2025640A0DE0
S1131970003230002D313000313030003230300050
S11319803135300031392F30362F30340031382F93
S113199030372F30350031392F31322F3233006157
S11319A070706C6500636F6B650066697368000036
S9030000FC
