S011000053746F7057617463682E7372656376
S11300000C9434000C9451000C9451000C94510045
S11300100C9451000C9451000C9451000C94510018
S11300200C9451000C9451000C9451000C94510008
S11300300C9451000C9451000C94E5000C94510064
S11300400C9451000C9451000C9451000C945100E8
S11300500C9451000C9451000C9451000C945100D8
S11300600C9451000C94510011241FBECFEFD8E022
S1130070DEBFCDBF11E0A0E0B1E0EEEFF3E002C0DF
S113008005900D92AE30B107D9F721E0AEE0B1E0B2
S113009001C01D92AB31B207E1F70E9477010C94C5
S11300A0FD010C94000084B18F6084B985B1807F18
S11300B085B98AB18FEF8AB99BB18BB90895CF9373
S11300C0DF93EC01E3E1F1E02AE030E0B9010E94C2
S11300D0D501DC01AC5FBE4F8C918083CB01B901AB
S11300E00E94D501DC01AC5FBE4F8C918183CE01AF
S11300F064E670E00E94D501CB01B9010E94D501EC
S1130100DC01AC5FBE4F8C918283CE0168EE73E05C
S11301100E94D501CB01B9010E94D501DC01AC5F7D
S1130120BE4F8C918383DF91CF9108950F931F93DA
S1130130CF93DF938C01262FC3E1D1E0EAE0F0E016
S1130140BF010E94D501CB01BF010E94D501DC0192
S1130150AC5FBE4F8C918883C80164E670E00E9456
S1130160D501CB01BF010E94D501FC01EC5FFE4F1C
S1130170808189838DEC289FE12D1124E695E695F5
S1130180E6953E2F330F932F990F990F930F291B49
S1130190A22FB0E0AC5FBE4F9C919B7F9A83E89FF7
S11301A0812D1124869586958695880F982F990F11
S11301B0990F890FE81BF0E0EC5FFE4F80818B8381
S11301C0DF91CF911F910F9108951F920F920FB657
S11301D00F9211242F933F934F935F936F937F93C9
S11301E08F939F93AF93BF93EF93FF9380911A01E3
S11301F0882349F080911101909112010196909306
S11302001201809311012091110130911201283EB5
S113021083E03807BCF01092120110921101809112
S11302200F018F5F8C3308F44CC010920F01809142
S11302300E018F5F8C3318F480930E0144C010922A
S11302400E0141C0C9016AE070E00E94D501892B0A
S113025039F480911701882319F081E08093180103
S113026080911901882379F01092190160910F018E
S1130270C9010E949600109212011092110110926D
S11302800F0110920E01809110018F5F843018F4D9
S11302908093100102C01092100185B1807F85B94E
S11302A095B1E0911001F0E0E050FF4F8081892B7F
S11302B085B9E0911001F0E0ED5EFE4F80818BB9CD
S11302C005C080930F0120E030E0C3CFFF91EF9190
S11302D0BF91AF919F918F917F916F915F914F915A
S11302E03F912F910F900FBE0F901F901895259A54
S11302F00E94530084B18F7C84B980E090E00E9416
S11303005F000E94C7017894C1E0D1E08091180198
S1130310882351F060910F01809111019091120195
S11303200E94960010921801CC2351F11C9916C01A
S11303308FE99FE00197F1F700C000001C99E6CF18
S1130340D0931A0180911701882321F0109217018C
S1130350C0E0DCCFD0931701C0E0D8CF1D99D6CF31
S11303608FE99FE00197F1F700C000001D99CECFFF
S113037010921A0110921701D0931901C0E0C6CF50
S11303801C9BC4CFC3B1C5FBCC27C0F9BFCF84B578
S1130390826084BD85B5836085BD89EF87BDEEE647
S11303A0F0E0808182608083089597FB072E16F425
S11303B0009407D077FD09D00E94E90107FC05D01D
S11303C03EF4909581959F4F0895709561957F4F68
S11303D00895AA1BBB1B51E107C0AA1FBB1FA61788
S11303E0B70710F0A61BB70B881F991F5A95A9F7DA
S11103F080959095BC01CD010895F894FFCF3F
S11103FE0108040214774C4527858457040532
S9030000FC
