:100000000C9434000C9451000C9451000C94510049
:100010000C9451000C9451000C9451000C9451001C
:100020000C9451000C9451000C9451000C9451000C
:100030000C9451000C9451000C9469030C945100E1
:100040000C9451000C9451000C9451000C945100EC
:100050000C9451000C9451000C9451000C945100DC
:100060000C9451000C94510011241FBECFEFD8E026
:10007000DEBFCDBF12E0A0E0B1E0E4E5FEE002C0EB
:1000800005900D92AE30B107D9F722E0AEE0B2E0B4
:1000900001C01D92AD34B207E1F70E94AD020C948D
:1000A00028070C9400008AB1806F8AB98BB18F70D9
:1000B0008BB987B1886387B9449A0895449840E022
:1000C00050E0682F70E04598439898B19B01042E4A
:1000D00002C0359527950A94E2F721703327220F45
:1000E000331F220F331F220F331F292B28B9459AA4
:1000F0004F5F5F4F4830510531F7449A0895CF93D1
:10010000DF93EC01AEE3B2E02AE332E0E991F0E004
:10011000E955FF4F80818E93A217B307B9F7DF919E
:10012000CF910895CF93DF93AAE3B2E09DEC899F2E
:10013000E12D1124E695E695E6953E2F330F232F0A
:10014000220F220F230F821BC82FD0E0CE5DDE4F7F
:1001500088818C93E99F812D1124869586958695BB
:10016000880F282F220F220F820FE81BF0E0EE5D90
:10017000FE4F808111968C931197699FE12D112478
:10018000E695E695E6952E2F220F822F880F880F91
:10019000820F681BC62FD0E0CE5DDE4F88818D7F39
:1001A00012968C931297E99F912D1124969596950E
:1001B0009695990F892F880F880F980FE91BF0E00B
:1001C000EE5DFE4F808113968C93DF91CF91089561
:1001D000EAE3F2E08FEF8083818382838383089553
:1001E0008AB18F608AB98BB18F608BB984B1837CFF
:1001F00084B985B18C6385B908951A9B08C01B9B8F
:1002000008C01C9B08C01D9B08C080E0089581E0C9
:10021000089582E0089583E0089584E008950F939F
:100220001F93CF93DF93C0E0D0E008E010E08BB1E4
:100230008F608BB99BB198010C2E02C03595279524
:100240000A94E2F7822F809589238BB98FE99FE08A
:100250000197F1F700C000000E94FD00882339F0EB
:100260000E94FD008F5BCC0FCC0F8C0F05C0219638
:10027000C430D105E1F681E4DF91CF911F910F9158
:1002800008956F927F928F929F92AF92BF92CF927A
:10029000DF92EF92FF920F931F93CF93DF93AFE123
:1002A000B3E01197F1F700C000007C015C01BDE0F4
:1002B000AB0EB11C912C0F2EF6E3CF2EF2E0DF2E09
:1002C000F02D66246A9488248394712C30C0809128
:1002D000400281110BC0D801EC91E03229F0F0E02E
:1002E000E955FF4F808101C0862D8B83992039F01D
:1002F0000E940F01813449F01092DA011CC00E9463
:100300000F01982C813409F0972C21970F5F1F4F14
:10031000CC15DD05E1F680924002909140029111EA
:10032000FCCFBFEFEB1AFB0AEA14FB0421F0CAE38F
:10033000D2E08701CCCFDF91CF911F910F91FF9039
:10034000EF90DF90CF90BF90AF909F908F907F9075
:100350006F9008950F931F93CF93DF93A1E2B2E0C4
:10036000E1E1F2E080E090E041E09C01992314F4A7
:100370002F5F3F4F359527952D93419301968031FF
:10038000910599F704E610E00E948706DC01CB0195
:100390008F709927AA27B078BB2354F40197A1093D
:1003A000B109806F9F6FAF6FBF6F0196A11DB11D27
:1003B000EC010E948706DC01CB018F709927AA27E8
:1003C000B078BB2354F40197A109B109806F9F6FE6
:1003D000AF6FBF6F0196A11DB11DCF5DDD4F2881AD
:1003E000FC01EF5DFD4F808188832083015011095E
:1003F00059F6DF91CF911F910F9108950F931F939D
:10040000CF93DF93C0910F02D0E0C254D109009185
:10041000100210E002541109FE01EF5DFD4FE08172
:10042000F0E0EE0FFF1FE15CFE4F60817181F8018B
:10043000EF5DFD4FE081F0E0EE0FFF1FE15CFE4F4E
:10044000808191810E94DE06892BA9F5F801EF5E7B
:10045000FD4F82E08083CF5EDD4F888380910E0266
:100460008F5F80930E02883089F481E080934B0285
:1004700010920E0295E090932C0110924C02809302
:1004800041021092100210920F0230C081E080935E
:100490004002809140028111FCCF0E94E8008BED68
:1004A00091E00E947F0081E080933F021092100251
:1004B00010920F021BC0F801EF5EFD4F81E08083B8
:1004C000CF5EDD4F8883809340028091400281118E
:1004D000FCCF0E94E80080EE91E00E947F0081E066
:1004E00080934A021092100210920F02DF91CF9176
:1004F0001F910F91089590911002911113C0809354
:1005000010020E940F01E82FF0E0E152FE4FE0815F
:10051000F0E0EE0FFF1FE15CFE4F808191810E94B1
:100520007F00089520910F02211116C09817A1F0A5
:1005300080930F020E940F01E82FF0E0E152FE4F7E
:10054000E081F0E0EE0FFF1FE15CFE4F80819181C2
:100550000E947F000E94FE0108950E94D4050E941F
:10056000E2050E9453000E94F0007894C0E0689475
:10057000EE24E2F8D1E008E810E0F12C0F2EF3E0D1
:10058000DF2EF02D8091DA01882321F08DE291E0B9
:100590000E94410180914B02882369F080914202C0
:1005A000882339F060913102809132020E949200DA
:1005B00002C00E94E8008091DA0181110CC0809194
:1005C0002C01833041F40E94E8000E94AA01E092CD
:1005D0002C01D0934C0280913F0281110FC0809179
:1005E0004A0281110BC080914102811107C0109213
:1005F000460210924502F80111821082CC2309F4C0
:100600005BC08FE193E00197F1F700C000000E940A
:100610000F01813409F456C0D093490280912C0116
:10062000843091F50E940F01882309F44BC00E9489
:100630000F01E82FF0E0E153FE4F80818130B9F4E3
:100640000E940F01E82FF0E0E152FE4FE081F0E060
:10065000EE0FFF1FE15CFE4F808191810E947F00C1
:100660000E940F0190E00E947B02CF2D2BC00E94C0
:100670000F01E82FF0E0E153FE4F8081823011F549
:100680000E94E800CF2D1EC08530E1F40E940F01CA
:100690008823C1F0D0934902D0922C01F0924B02F2
:1006A000D093DA011092390210923802F09232029D
:1006B000F0923102CF2D06C00E940F01CD2F813460
:1006C00009F0CF2DEFE3FCE93197F1F700C000000E
:1006D00059CF1F920F920FB60F9211242F933F9371
:1006E0004F935F936F937F938F939F93AF93BF933A
:1006F000EF93FF9380914C02882349F08091380258
:10070000909139020196909339028093380280913A
:100710004002882349F08091360290913702019679
:10072000909337028093360280914B02882349F0E0
:100730008091340290913502019690933502809316
:1007400034028091340290913502843F914084F0CC
:1007500081E0809342028091340290913502883E7C
:10076000934034F0109242021092350210923402FB
:1007700080913602909137028C3B924034F0109277
:100780004002109237021092360280913802909106
:100790003902883E9340D4F0109239021092380208
:1007A000809132028F5F80933202809132028C33CB
:1007B00068F010923202809131028F5F8093310293
:1007C000809131028C3310F01092310280914902F5
:1007D0008823B1F084EF91E09093890080938800A2
:1007E000809138029091390268EC70E00E94F20525
:1007F000892B31F4109289001092880010924902DE
:1008000080913F02882309F487C08091470290912C
:100810004802892B09F073C08091D901882309F41B
:1008200055C01092D901E0914502F0914602EE0FB9
:10083000FF1FE153FE4F80819181892BC9F0E09128
:100840004502F0914602EE0FFF1FE153FE4F20815B
:100850003181032E000C440B550B60E472E48FE0F1
:1008600090E00E940606309389002093880004C01F
:100870001092890010928800E0914502F0914602A2
:10088000EE0FFF1FE953FE4F808191819093440248
:1008900080934302E0914502F0914602EE0FFF1F64
:1008A000E153FE4F8081918180339F4231F4109259
:1008B0003F02109289001092880080914502909129
:1008C000460201969093460280934502809143022E
:1008D0009091440201979093440280934302809147
:1008E000430290914402892BB9F481E08093D901AD
:1008F0008AE090E090934802809347020DC01092E6
:1009000089001092880080914702909148020197D7
:10091000909348028093470280914A02882309F409
:1009200087C08091470290914802892B09F073C0DB
:100930008091D901882309F455C01092D901E09122
:100940004502F0914602EE0FFF1FE354FE4F8081F7
:100950009181892BC9F0E0914502F0914602EE0F9A
:10096000FF1FE354FE4F20813181032E000C440B06
:10097000550B60E472E48FE090E00E94060630932D
:1009800089002093880004C010928900109288008A
:10099000E0914502F0914602EE0FFF1FEB54FE4F2F
:1009A000808191819093440280934302E0914502BB
:1009B000F0914602EE0FFF1FE354FE4F80819181BC
:1009C00080339F4231F410924A02109289001092B3
:1009D00088008091450290914602019690934602CC
:1009E0008093450280914302909144020197909335
:1009F0004402809343028091430290914402892BE8
:100A0000B9F481E08093D9018AE090E090934802A4
:100A1000809347020DC01092890010928800809147
:100A200047029091480201979093480280934702B1
:100A300080914102882309F487C0809147029091F8
:100A40004802892B09F073C08091D901882309F4E9
:100A500055C01092D901E0914502F0914602EE0F87
:100A6000FF1FEF57FE4F80819181892BC9F0E091E4
:100A70004502F0914602EE0FFF1FEF57FE4F208117
:100A80003181032E000C440B550B60E472E48FE0BF
:100A900090E00E940606309389002093880004C0ED
:100AA0001092890010928800E0914502F091460270
:100AB000EE0FFF1FE15BFE4F808191819093440216
:100AC00080934302E0914502F0914602EE0FFF1F32
:100AD000EF57FE4F8081918180339F4231F4109215
:100AE00041021092890010928800809145029091F5
:100AF00046020196909346028093450280914302FC
:100B00009091440201979093440280934302809114
:100B1000430290914402892BB9F481E08093D9017A
:100B20008AE090E090934802809347020DC01092B3
:100B300089001092880080914702909148020197A5
:100B40009093480280934702809133028F5F809395
:100B5000330280913302843010F0109233028BB153
:100B60008F708BB9E0913302F0E0E65CFD4F80813D
:100B70000E945E00E09133029BB1F0E0EC5FFE4F1B
:100B80008081892B8BB9FF91EF91BF91AF919F919C
:100B90008F917F916F915F914F913F912F910F9026
:100BA0000FBE0F901F90189584B5826084BD85B5E7
:100BB000836085BD89EF87BDEEE6F0E080818260CD
:100BC00080830895219AE0E8F0E08081806480834A
:100BD000E1E8F0E080818A608083109289001092C1
:100BE0008800089597FB072E16F4009407D077FD30
:100BF00009D00E94280607FC05D03EF49095819507
:100C00009F4F0895709561957F4F0895A1E21A2E28
:100C1000AA1BBB1BFD010DC0AA1FBB1FEE1FFF1FA0
:100C2000A217B307E407F50720F0A21BB30BE40BF0
:100C3000F50B661F771F881F991F1A9469F7609537
:100C40007095809590959B01AC01BD01CF010895F1
:100C5000AA1BBB1B51E107C0AA1FBB1FA617B707E2
:100C600010F0A61BB70B881F991F5A95A9F78095FE
:100C70009095BC01CD0108958F929F92AF92BF9243
:100C8000CF92DF92EF92FF92CF93DF93EC016881D6
:100C900079818A819B81611571058105910521F416
:100CA00064E279ED8BE597E02DE133EF41E050E030
:100CB0000E94E70649015A019B01AC01A7EAB1E491
:100CC0000E9406076B017C01ACEEB4EFA501940114
:100CD0000E941407DC01CB018C0D9D1DAE1DBF1DB4
:100CE000B7FF03C00197A109B04888839983AA83FD
:100CF000BB83BC01CD019F77DF91CF91FF90EF9037
:100D0000DF90CF90BF90AF909F908F9008958F927B
:100D10009F92AF92BF92CF92DF92EF92FF9260913B
:100D20000001709101018091020190910301611510
:100D300071058105910521F464E279ED8BE597E079
:100D40002DE133EF41E050E00E94E70649015A01EE
:100D50009B01AC01A7EAB1E40E9406076B017C018C
:100D6000ACEEB4EFA50194010E941407DC01CB01A5
:100D70008C0D9D1DAE1DBF1DB7FF03C00197A109BE
:100D8000B0488093000190930101A0930201B093B9
:100D90000301BC01CD019F77FF90EF90DF90CF90D2
:100DA000BF90AF909F908F900895609300017093D3
:100DB000010180930201909303010895FB01DC017E
:100DC0008D91019080190110D9F3990B0895052E8A
:100DD00097FB1EF400940E94FE0657FD07D00E9468
:100DE000060607FC03D04EF40C94FE065095409581
:100DF000309521953F4F4F4F5F4F089590958095C7
:100E0000709561957F4F8F4F9F4F08950E941907EE
:100E1000A59F900DB49F900DA49F800D911D11244E
:100E20000895B7FF0C9406070E940607821B930BD8
:100E30000895A29FB001B39FC001A39F700D811DB3
:100E40001124911DB29F700D811D1124911D0895D3
:040E5000F894FFCF44
:100E540001000000102040800652936213170A46D6
:100E640067E2FDD3367672070E771A53F2424BC609
:100E74004A3B82EE232A4E1A12AE020A0320202095
:100E840020706169722067616D652020202000E573
:100E940001EA01EF01F401F901FE0103020802AACB
:100EA400025501550155015501AA02AA02550155E1
:100EB4000155015501AA021C02AA0055015501550C
:100EC400015501AA02AA025501550155015501AA6D
:100ED40002100393029302100393020B024B02933A
:100EE400024B020B029302100316041003160410A3
:100EF4000316041003930210034B02BA0293024B2D
:100F0400020B02302FAA00AA00AA00AA001604DCD1
:100F1400031604DC03302FAA00AA00AA0055010B13
:100F240002930210031604302F0101676F6F6400EF
:100F34006661696C00636F6C64006D61746800665F
:100F44006F6E7400726F616400626561720070613B
:0E0F54006972006E6F746500636F6465000063
:00000001FF
