S01B0000446F746D6174726978436F6E74726F6C6C65722E7372656329
S11300000C9434000C9451000C9451000C94510045
S11300100C9451000C9451000C9451000C94510018
S11300200C9451000C9451000C9451000C94510008
S11300300C9451000C9451000C9435020C94510012
S11300400C9451000C9451000C9489020C945100AE
S11300500C9451000C9451000C9451000C945100D8
S11300600C9451000C94510011241FBECFEFD8E022
S1130070DEBFCDBF11E0A0E0B1E0E4E0FAE002C0F1
S113008005900D92A035B107D9F723E0A0E5B1E0C2
S113009001C01D92A237B207E1F70E9461000C94DF
S11300A000050C94000087B1886387B9449AEEE593
S11300B0F1E026E631E08FEF8193E217F307E1F7F1
S11300C00895259A2D980E94530060E875E280E017
S11300D090E00E94E1020E9473027894D12C0F2ECA
S11300E0F2E38F2EF02D0F2EFDEC9F2EF02D689451
S11300F0662462F80F2EF3E07F2EF02DCEE6D1E0D9
S113010006E611E0CC24CA94EE24E394F12C809109
S11301106703882309F465C1809167038150809344
S113012067038D9CC001112466E071E08D589E4FD9
S11301300E943C035C0168E071E00E944103892B4A
S113014009F057C0AB2809F4A1C061E171E080E077
S113015090E00E943C03009709F498C0DC0127E07A
S113016030E08D91803341F4E0917001F0E0ED5A7C
S1130170FE4F808180830FC0E0917001F0E0ED5A62
S1130180FE4F8081A701022E02C0440F551F0A941E
S1130190E2F7482B40832150310918F7E0917001B0
S11301A0A0917001B0E0AD5ABE4F8C91F0E0EA59D5
S11301B0FE4F8083E0917001A0917001F0E0E25A5B
S11301C0FE4FB0E0AA59BE4F8C918083E09170013C
S11301D0F0E0ED5AFE4F1082809170018F5F8093A2
S11301E0700180917001883008F4AFCF10927001D3
S11301F0ACCF63E171E0C5010E944103892B51F446
S1130200EEE5F1E0A6E6B1E0C192CD920E171F072C
S1130210D9F73CC06CE171E0C5010E944103892B10
S113022021F481E08093520131C065E271E0C5019F
S11302300E944103892B21F482E08093520126C05D
S11302406FE271E0C5010E944103892B61F41092B1
S11302505201E6E6F1E0AEE5B1E081918D93CE176F
S1130260DF07D9F713C068E371E0C5010E944103B9
S1130270892B19F47092520109C06FE371E0C50132
S11302800E944103892B11F46092520191E09D0D6B
S1130290999DD12C1124D694D694D694DD0C8D2D11
S11302A0880F880FD80E9D19D92E9BC04191542FC9
S11302B0082E01C0550F0A94EAF7022E01C0469594
S11302C00A94EAF7452B4D93CE17DF0779F72FEF02
S11302D031EE44E0215030404040E1F700C00000DE
S11302E001968830910519F412CF80E090E0E6E69B
S11302F0F1E0AEE5B1E022273327281B390B277044
S11303003327D4CF823069F51FC04191542F082E72
S113031001C056950A94EAF7022E01C0440F0A94CC
S1130320EAF7452B4D93EC17FD0779F72FEF31EEE4
S113033044E0215030404040E1F700C00000019605
S11303408830910519F4E3CE80E090E0E6E6F1E030
S1130350AEE5B1E022273327281B390B277033275A
S1130360D4CF8330F1F420E0AEE5B1E0822F8F5F8B
S1130370883008F080E0E82FF0E0EA59FE4F9081E1
S11303809D930A171B0799F78FEF91EE34E0815084
S113039090403040E1F700C000002F5F283021F783
S11303A0B6CE843009F0B3CE27E0AEE5B1E0822FBB
S11303B0E82FF0E0E85BFE4F90819D938F5F8830DB
S11303C008F080E00A171B0799F74FEF81EE94E0DD
S11303D0415080409040E1F700C00000215028F7D0
S11303E096CE80915201813009F08CCF7ECF449813
S11303F040E050E0E82FF0E04598439898B19F0121
S1130400042E02C0359527950A94E2F7217033270C
S1130410220F331F220F331F220F331F292B28B91A
S1130420459A4F5F5F4F4830510531F720E030E087
S113043070E04598439848B1CB01022E02C09595CF
S113044087950A94E2F781709927880F991F880F7E
S1130450991F880F991F842B88B9459A2F5F3F4FA6
S11304602830310531F7449A08951F920F920FB640
S11304700F9211242F933F934F935F936F937F9326
S11304808F939F93AF93BF93EF93FF9380915B01FF
S11304908F5F80935B0180915B01883010F0109234
S11304A05B0180915B01E0915B0160E870E002C058
S11304B0759567958A95E2F7F0E0E25AFE4F8081E0
S11304C00E94F701FF91EF91BF91AF919F918F919E
S11304D07F916F915F914F913F912F910F900FBE3C
S11304E00F901F90189584B5826084BD85B5836094
S11304F085BD89EF87BDEEE6F0E080818260808370
S11305000895E0ECF0E0908195FFFDCF8093C60064
S113051008951F920F920FB60F9211242F938F9369
S11305209F93EF93FF938091C60080937201809113
S11305305D018233E0F5909167039B30C0F59091A3
S113054072019A3019F590915C0122E3929FF001B7
S11305501124ED58FE4FE80FF11D108210925D0139
S1130560809167038F5F809367039F5F8DEC989FF3
S1130570812D1124869586958695880F282F220F24
S1130580220F820F981B90935C0111C0E0915C01D3
S113059091E0980F90935D019091720122E3E29FA4
S11305A0F0011124ED58FE4FE80FF11D9083FF91E7
S11305B0EF919F918F912F910F900FBE0F901F90ED
S11305C01895CF92DF92EF92FF926B017C0160E06D
S11305D070E081E892E00E947103E1ECF0E0808138
S11305E088698083E2ECF0E080818660808360E447
S11305F072E48FE090E0A70196010E941A03DA01E9
S1130600C9010197A109B109892F9A2FAB2FBB27E3
S11306108093C50021502093C4008091C6008FE9C7
S11306209FE00197F1F700C00000FF90EF90DF908A
S1130630CF900895A1E21A2EAA1BBB1BFD010DC089
S1130640AA1FBB1FEE1FFF1FA217B307E407F5077E
S113065020F0A21BB30BE40BF50B661F771F881F5A
S1130660991F1A9469F760957095809590959B01F0
S1130670AC01BD01CF01089540E551E00E944A0359
S11306800895FB01DC018D91019080190110D9F3CB
S1130690990B0895FA01A191B081009719F410976C
S11306A0E1F0CD01DC01CD010D90002011F4C00179
S11306B013C0FB012191222319F02015D9F7F3CFA0
S11306C0FB012191201519F41E92119606C02223D4
S11306D0C1F70D900020A1F7D001FA01A193B083D6
S11306E008950F931F93CF93DF93009731F461150F
S11306F0710519F480E090E03AC08B01EC016EE0E2
S113070070E081E090E00E94BC03FC01892B91F32E
S113071080E883830115110571F01387028781E84E
S113072083838091680390916903892B21F4F0936A
S11307306903E09368032097C9F0D187C087838158
S11307408260838380916A0390916B03892B71F497
S1130750F0936B03E0936A0380916C0390916D03B3
S1130760892B21F4F0936D03E0936C03CF01DF91A7
S1130770CF911F910F9108950F931F93CF93DF9300
S1130780869F8001879F100D969F100D1124C8012C
S11307900E94D803EC01009729F0A80160E070E002
S11307A00E94F904CE01DF91CF911F910F9108951A
S11307B00F931F93CF93DF938230910510F482E05F
S11307C090E0E0917003F091710320E030E0A0E04C
S11307D0B0E0309719F140815181028113814817AB
S11307E05907C8F08417950769F4109731F01296E9
S11307F00C93129713961C9327C0009370031093C5
S1130800710322C02115310519F04217530718F45A
S11308109A01BD01EF01DF01F801DBCF211531059C
S1130820F9F0281B390B2430310580F48A819B812F
S11308306115710521F0FB019383828304C09093B9
S1130840710380937003FE01329644C0FE01E20FEF
S1130850F31F8193919322503109398328833AC03D
S113086020916E0330916F03232B41F420910201F8
S11308703091030130936F0320936E0320910001A4
S1130880309101012115310541F42DB73EB7409156
S1130890040150910501241B350BE0916E03F09186
S11308A06F03E217F307A0F42E1B3F0B2817390739
S11308B078F0AC014E5F5F4F2417350748F04E0FB8
S11308C05F1F50936F0340936E038193919302C013
S11308D0E0E0F0E0CF01DF91CF911F910F910895F7
S11308E0CF93DF93009709F481C0FC013297138200
S11308F01282A0917003B0917103109781F420814A
S11309003181820F931F20916E0330916F0328175A
S1130910390751F5F0936F03E0936E0367C0ED015F
S113092020E030E0CE17DF0740F44A815B819E016E
S113093041155105F1F0EA01F5CFD383C28340811B
S11309405181840F951FC817D90759F4888199815B
S1130950840F951F0296918380838A819B81938360
S113096082832115310529F4F0937103E093700318
S11309703DC0E901FB83EA8349915991C40FD51F16
S1130980EC17FD0761F480819181840F951F029615
S1130990E90199838883828193819B838A83E0E040
S11309A0F0E012968D919C911397009719F0FD0138
S11309B0DC01F7CF8D919C9111979D012E5F3F4FE4
S11309C0820F931F20916E0330916F03281739070C
S11309D069F4309729F4109271031092700302C0E5
S11309E013821282B0936F03A0936E03DF91CF91B1
S11309F00895DC0101C06D9341505040E0F7089523
S1070A00F894FFCF94
S1130A040000720320002000646F745472616E73DA
S1130A14002F00646F74436C656172006D6F7665BA
S1130A244C656674006D6F76655269676874006D11
S1130A346F766553746F70006D6F76655570006DD5
S1130A446F7665446F776E008DEDDDBDFFC3DBC348
S9030000FC
